{
    "contractName": "SATPWrapperContract",
    "abi": [
        {
            "inputs": [
                {
                    "internalType": "address",
                    "name": "_bridge_address",
                    "type": "address"
                }
            ],
            "stateMutability": "nonpayable",
            "type": "constructor"
        },
        {
            "inputs": [
                {
                    "internalType": "string",
                    "name": "tokenId",
                    "type": "string"
                },
                {
                    "internalType": "uint256",
                    "name": "amount",
                    "type": "uint256"
                }
            ],
            "name": "InsuficientAmountLocked",
            "type": "error"
        },
        {
            "inputs": [
                {
                    "internalType": "address",
                    "name": "owner",
                    "type": "address"
                }
            ],
            "name": "OwnableInvalidOwner",
            "type": "error"
        },
        {
            "inputs": [
                {
                    "internalType": "address",
                    "name": "account",
                    "type": "address"
                }
            ],
            "name": "OwnableUnauthorizedAccount",
            "type": "error"
        },
        {
            "inputs": [
                {
                    "internalType": "string",
                    "name": "tokenId",
                    "type": "string"
                }
            ],
            "name": "TokenAlreadyWrapped",
            "type": "error"
        },
        {
            "inputs": [
                {
                    "internalType": "string",
                    "name": "tokenId",
                    "type": "string"
                }
            ],
            "name": "TokenLocked",
            "type": "error"
        },
        {
            "inputs": [
                {
                    "internalType": "string",
                    "name": "tokenId",
                    "type": "string"
                }
            ],
            "name": "TokenNotAvailable",
            "type": "error"
        },
        {
            "inputs": [
                {
                    "internalType": "string",
                    "name": "tokenId",
                    "type": "string"
                }
            ],
            "name": "TokenNotLocked",
            "type": "error"
        },
        {
            "inputs": [
                {
                    "internalType": "string",
                    "name": "tokenId",
                    "type": "string"
                }
            ],
            "name": "TokenNotUnlocked",
            "type": "error"
        },
        {
            "anonymous": false,
            "inputs": [
                {
                    "indexed": false,
                    "internalType": "string",
                    "name": "tokenId",
                    "type": "string"
                },
                {
                    "indexed": false,
                    "internalType": "address",
                    "name": "receiver_account",
                    "type": "address"
                },
                {
                    "indexed": false,
                    "internalType": "uint256",
                    "name": "amount",
                    "type": "uint256"
                }
            ],
            "name": "Assign",
            "type": "event"
        },
        {
            "anonymous": false,
            "inputs": [
                {
                    "indexed": false,
                    "internalType": "string",
                    "name": "tokenId",
                    "type": "string"
                },
                {
                    "indexed": false,
                    "internalType": "uint256",
                    "name": "amount",
                    "type": "uint256"
                }
            ],
            "name": "Burn",
            "type": "event"
        },
        {
            "anonymous": false,
            "inputs": [
                {
                    "indexed": true,
                    "internalType": "string",
                    "name": "id",
                    "type": "string"
                },
                {
                    "indexed": false,
                    "internalType": "bytes[]",
                    "name": "value",
                    "type": "bytes[]"
                }
            ],
            "name": "Changed",
            "type": "event"
        },
        {
            "anonymous": false,
            "inputs": [
                {
                    "indexed": false,
                    "internalType": "string",
                    "name": "tokenId",
                    "type": "string"
                },
                {
                    "indexed": false,
                    "internalType": "uint256",
                    "name": "amount",
                    "type": "uint256"
                }
            ],
            "name": "Lock",
            "type": "event"
        },
        {
            "anonymous": false,
            "inputs": [
                {
                    "indexed": false,
                    "internalType": "string",
                    "name": "tokenId",
                    "type": "string"
                },
                {
                    "indexed": false,
                    "internalType": "uint256",
                    "name": "amount",
                    "type": "uint256"
                }
            ],
            "name": "Mint",
            "type": "event"
        },
        {
            "anonymous": false,
            "inputs": [
                {
                    "indexed": true,
                    "internalType": "address",
                    "name": "previousOwner",
                    "type": "address"
                },
                {
                    "indexed": true,
                    "internalType": "address",
                    "name": "newOwner",
                    "type": "address"
                }
            ],
            "name": "OwnershipTransferred",
            "type": "event"
        },
        {
            "anonymous": false,
            "inputs": [
                {
                    "indexed": false,
                    "internalType": "string",
                    "name": "tokenId",
                    "type": "string"
                },
                {
                    "indexed": false,
                    "internalType": "uint256",
                    "name": "amount",
                    "type": "uint256"
                }
            ],
            "name": "Unlock",
            "type": "event"
        },
        {
            "anonymous": false,
            "inputs": [
                {
                    "indexed": false,
                    "internalType": "string",
                    "name": "tokenId",
                    "type": "string"
                }
            ],
            "name": "Unwrap",
            "type": "event"
        },
        {
            "anonymous": false,
            "inputs": [
                {
                    "indexed": false,
                    "internalType": "address",
                    "name": "contractAddress",
                    "type": "address"
                },
                {
                    "indexed": false,
                    "internalType": "enum TokenType",
                    "name": "tokenType",
                    "type": "uint8"
                },
                {
                    "indexed": false,
                    "internalType": "string",
                    "name": "tokenId",
                    "type": "string"
                },
                {
                    "indexed": false,
                    "internalType": "address",
                    "name": "owner",
                    "type": "address"
                }
            ],
            "name": "Wrap",
            "type": "event"
        },
        {
            "inputs": [
                {
                    "internalType": "string",
                    "name": "tokenId",
                    "type": "string"
                },
                {
                    "internalType": "address",
                    "name": "receiver_account",
                    "type": "address"
                },
                {
                    "internalType": "uint256",
                    "name": "amount",
                    "type": "uint256"
                }
            ],
            "name": "assign",
            "outputs": [
                {
                    "internalType": "bool",
                    "name": "success",
                    "type": "bool"
                }
            ],
            "stateMutability": "nonpayable",
            "type": "function"
        },
        {
            "inputs": [],
            "name": "bridge_address",
            "outputs": [
                {
                    "internalType": "address",
                    "name": "",
                    "type": "address"
                }
            ],
            "stateMutability": "view",
            "type": "function"
        },
        {
            "inputs": [
                {
                    "internalType": "string",
                    "name": "tokenId",
                    "type": "string"
                },
                {
                    "internalType": "uint256",
                    "name": "amount",
                    "type": "uint256"
                }
            ],
            "name": "burn",
            "outputs": [
                {
                    "internalType": "bool",
                    "name": "success",
                    "type": "bool"
                }
            ],
            "stateMutability": "nonpayable",
            "type": "function"
        },
        {
            "inputs": [],
            "name": "getAllAssetsIDs",
            "outputs": [
                {
                    "internalType": "string[]",
                    "name": "",
                    "type": "string[]"
                }
            ],
            "stateMutability": "view",
            "type": "function"
        },
        {
            "inputs": [
                {
                    "internalType": "string",
                    "name": "tokenId",
                    "type": "string"
                }
            ],
            "name": "getToken",
            "outputs": [
                {
                    "components": [
                        {
                            "internalType": "address",
                            "name": "contractAddress",
                            "type": "address"
                        },
                        {
                            "internalType": "enum TokenType",
                            "name": "tokenType",
                            "type": "uint8"
                        },
                        {
                            "internalType": "string",
                            "name": "tokenId",
                            "type": "string"
                        },
                        {
                            "internalType": "address",
                            "name": "owner",
                            "type": "address"
                        },
                        {
                            "internalType": "uint256",
                            "name": "amount",
                            "type": "uint256"
                        }
                    ],
                    "internalType": "struct Token",
                    "name": "token",
                    "type": "tuple"
                }
            ],
            "stateMutability": "view",
            "type": "function"
        },
        {
            "inputs": [
                {
                    "internalType": "string",
                    "name": "tokenId",
                    "type": "string"
                },
                {
                    "internalType": "uint256",
                    "name": "amount",
                    "type": "uint256"
                }
            ],
            "name": "lock",
            "outputs": [
                {
                    "internalType": "bool",
                    "name": "success",
                    "type": "bool"
                }
            ],
            "stateMutability": "nonpayable",
            "type": "function"
        },
        {
            "inputs": [
                {
                    "internalType": "string",
                    "name": "tokenId",
                    "type": "string"
                },
                {
                    "internalType": "uint256",
                    "name": "amount",
                    "type": "uint256"
                }
            ],
            "name": "mint",
            "outputs": [
                {
                    "internalType": "bool",
                    "name": "success",
                    "type": "bool"
                }
            ],
            "stateMutability": "nonpayable",
            "type": "function"
        },
        {
            "inputs": [],
            "name": "owner",
            "outputs": [
                {
                    "internalType": "address",
                    "name": "",
                    "type": "address"
                }
            ],
            "stateMutability": "view",
            "type": "function"
        },
        {
            "inputs": [],
            "name": "renounceOwnership",
            "outputs": [],
            "stateMutability": "nonpayable",
            "type": "function"
        },
        {
            "inputs": [
                {
                    "internalType": "string",
                    "name": "",
                    "type": "string"
                }
            ],
            "name": "tokens",
            "outputs": [
                {
                    "internalType": "address",
                    "name": "contractAddress",
                    "type": "address"
                },
                {
                    "internalType": "enum TokenType",
                    "name": "tokenType",
                    "type": "uint8"
                },
                {
                    "internalType": "string",
                    "name": "tokenId",
                    "type": "string"
                },
                {
                    "internalType": "address",
                    "name": "owner",
                    "type": "address"
                },
                {
                    "internalType": "uint256",
                    "name": "amount",
                    "type": "uint256"
                }
            ],
            "stateMutability": "view",
            "type": "function"
        },
        {
            "inputs": [
                {
                    "internalType": "string",
                    "name": "",
                    "type": "string"
                },
                {
                    "internalType": "enum InteractionType",
                    "name": "",
                    "type": "uint8"
                }
            ],
            "name": "tokensInteractions",
            "outputs": [
                {
                    "internalType": "enum InteractionType",
                    "name": "interactionType",
                    "type": "uint8"
                },
                {
                    "internalType": "bool",
                    "name": "available",
                    "type": "bool"
                }
            ],
            "stateMutability": "view",
            "type": "function"
        },
        {
            "inputs": [
                {
                    "internalType": "address",
                    "name": "newOwner",
                    "type": "address"
                }
            ],
            "name": "transferOwnership",
            "outputs": [],
            "stateMutability": "nonpayable",
            "type": "function"
        },
        {
            "inputs": [
                {
                    "internalType": "string",
                    "name": "tokenId",
                    "type": "string"
                },
                {
                    "internalType": "uint256",
                    "name": "amount",
                    "type": "uint256"
                }
            ],
            "name": "unlock",
            "outputs": [
                {
                    "internalType": "bool",
                    "name": "success",
                    "type": "bool"
                }
            ],
            "stateMutability": "nonpayable",
            "type": "function"
        },
        {
            "inputs": [
                {
                    "internalType": "string",
                    "name": "tokenId",
                    "type": "string"
                }
            ],
            "name": "unwrap",
            "outputs": [
                {
                    "internalType": "bool",
                    "name": "success",
                    "type": "bool"
                }
            ],
            "stateMutability": "nonpayable",
            "type": "function"
        },
        {
            "inputs": [
                {
                    "internalType": "address",
                    "name": "contractAddress",
                    "type": "address"
                },
                {
                    "internalType": "enum TokenType",
                    "name": "tokenType",
                    "type": "uint8"
                },
                {
                    "internalType": "string",
                    "name": "tokenId",
                    "type": "string"
                },
                {
                    "internalType": "address",
                    "name": "owner",
                    "type": "address"
                },
                {
                    "components": [
                        {
                            "internalType": "enum InteractionType",
                            "name": "interactionType",
                            "type": "uint8"
                        },
                        {
                            "internalType": "string[]",
                            "name": "functionsSignature",
                            "type": "string[]"
                        },
                        {
                            "internalType": "enum Types[][]",
                            "name": "variables",
                            "type": "uint8[][]"
                        },
                        {
                            "internalType": "bool",
                            "name": "available",
                            "type": "bool"
                        }
                    ],
                    "internalType": "struct InteractionSignature[]",
                    "name": "interactions",
                    "type": "tuple[]"
                }
            ],
            "name": "wrap",
            "outputs": [
                {
                    "internalType": "bool",
                    "name": "wrapSuccess",
                    "type": "bool"
                }
            ],
            "stateMutability": "nonpayable",
            "type": "function"
        },
        {
            "inputs": [
                {
                    "internalType": "address",
                    "name": "contractAddress",
                    "type": "address"
                },
                {
                    "internalType": "enum TokenType",
                    "name": "tokenType",
                    "type": "uint8"
                },
                {
                    "internalType": "string",
                    "name": "tokenId",
                    "type": "string"
                },
                {
                    "internalType": "address",
                    "name": "owner",
                    "type": "address"
                }
            ],
            "name": "wrap",
            "outputs": [
                {
                    "internalType": "bool",
                    "name": "wrapSuccess",
                    "type": "bool"
                }
            ],
            "stateMutability": "nonpayable",
            "type": "function"
        }
    ],
    "bytecode": "60806040523480156200001157600080fd5b5060405162003c0638038062003c068339810160408190526200003491620000e6565b806001600160a01b0381166200006457604051631e4fbdf760e01b81526000600482015260240160405180910390fd5b6200006f8162000096565b50600480546001600160a01b0319166001600160a01b039290921691909117905562000118565b600080546001600160a01b038381166001600160a01b0319831681178455604051919092169283917f8be0079c531659141344cd1fd0a4f28419497f9722a3daafe3b4186f6b6457e09190a35050565b600060208284031215620000f957600080fd5b81516001600160a01b03811681146200011157600080fd5b9392505050565b613ade80620001286000396000f3fe608060405234801561001057600080fd5b50600436106101005760003560e01c80638da5cb5b11610097578063d9cf884c11610066578063d9cf884c1461022f578063e1efb59614610242578063ea8f547f14610255578063f2fde38b146102ac57600080fd5b80638da5cb5b146101d8578063a1bc17c5146101e9578063b48272cc146101fc578063c1733f681461020f57600080fd5b80635137b8a7116100d35780635137b8a714610193578063623662ad146101a8578063715018a6146101bb57806372d4c33b146101c557600080fd5b806304c2320b14610105578063056b01ce146101325780631255c189146101555780634534ba1714610180575b600080fd5b610118610113366004612d5b565b6102bf565b604051610129959493929190612e09565b60405180910390f35b610145610140366004612e4d565b61039f565b6040519015158152602001610129565b600454610168906001600160a01b031681565b6040516001600160a01b039091168152602001610129565b61014561018e366004612ea8565b6104c0565b61019b610610565b6040516101299190612efe565b6101456101b63660046130b0565b6106e9565b6101c36109b2565b005b6101456101d336600461331a565b6109c6565b6000546001600160a01b0316610168565b6101456101f7366004612d5b565b610aa7565b61014561020a366004612e4d565b610c94565b61022261021d366004612d5b565b610dc8565b6040516101299190613388565b61014561023d366004612e4d565b610f1b565b610145610250366004612e4d565b61106a565b61029e6102633660046133ed565b8151602081840181018051600282529282019482019490942091909352909152600090815260409020805460039091015460ff918216911682565b60405161012992919061344a565b6101c36102ba366004613467565b611161565b805160208183018101805160018083529383019290940191909120929052815490820180546001600160a01b03831693600160a01b90930460ff1692919061030690613482565b80601f016020809104026020016040519081016040528092919081815260200182805461033290613482565b801561037f5780601f106103545761010080835404028352916020019161037f565b820191906000526020600020905b81548152906001019060200180831161036257829003601f168201915b50505050600283015460039093015491926001600160a01b031691905085565b60006103a961119f565b60006001600160a01b03166001846040516103c491906134bc565b908152604051908190036020019020546001600160a01b031603610406578260405163c0bab25f60e01b81526004016103fd91906134d8565b60405180910390fd5b610412836000846111cc565b6104575760405162461bcd60e51b81526020600482015260166024820152751b5a5b9d08185cdcd95d0818d85b1b0819985a5b195960521b60448201526064016103fd565b8160018460405161046891906134bc565b9081526020016040518091039020600301819055507f0a4e1e5035320483d096cf114513007c4eda3853a4dca806da2d9faec60470a683836040516104ae9291906134eb565b60405180910390a15060015b92915050565b60006104ca61119f565b816001856040516104db91906134bc565b908152602001604051809103902060030154101561053b5760405162461bcd60e51b815260206004820181905260248201527f61737369676e206173736574206173736574206973206e6f74206c6f636b656460448201526064016103fd565b61054884600284866111d7565b6105945760405162461bcd60e51b815260206004820152601860248201527f61737369676e2061737365742063616c6c206661696c6564000000000000000060448201526064016103fd565b816001856040516105a591906134bc565b908152602001604051809103902060030160008282546105c59190613523565b90915550506040517f0b3112bdbedc0251766a323a5c6ad4df77174bbc08bd61b944815ad9efe8d54c906105fe90869086908690613536565b60405180910390a15060019392505050565b60606003805480602002602001604051908101604052809291908181526020016000905b828210156106e057838290600052602060002001805461065390613482565b80601f016020809104026020016040519081016040528092919081815260200182805461067f90613482565b80156106cc5780601f106106a1576101008083540402835291602001916106cc565b820191906000526020600020905b8154815290600101906020018083116106af57829003601f168201915b505050505081526020019060010190610634565b50505050905090565b60006106f361119f565b60006001600160a01b031660018560405161070e91906134bc565b908152604051908190036020019020546001600160a01b03161461074757836040516319eac8d160e21b81526004016103fd91906134d8565b600385600381111561075b5761075b612d8f565b0361076f5761076a84836114f0565b610779565b6107798486611610565b60028460405161078991906134bc565b9081526040805160209281900383019020600360008181529190935220015460ff161561082d576107bb846003612534565b61082d5760405162461bcd60e51b815260206004820152603a60248201527f42726964676520646f6573206e6f742068617665207065726d697373696f6e2060448201527f746f20696e74657261637420776974682074686520746f6b656e00000000000060648201526084016103fd565b6040518060a00160405280876001600160a01b0316815260200186600381111561085957610859612d8f565b8152602001858152602001846001600160a01b03168152602001600081525060018560405161088891906134bc565b908152604051908190036020908101909120825181546001600160a01b039091166001600160a01b031982168117835592840151919283916001600160a81b03191617600160a01b8360038111156108e2576108e2612d8f565b0217905550604082015160018201906108fb90826135b2565b5060608201516002820180546001600160a01b0319166001600160a01b0390921691909117905560809091015160039182015580546001810182556000919091527fc2575a0e9e593c00f959f8c92f12db2869c3395a3b0502d05e2516446f71f85b0161096885826135b2565b507ffc4880465dc3977b851975c93dcde086945a51118c42a660991dce4cab2b09668686868660405161099e9493929190613671565b60405180910390a150600195945050505050565b6109ba61119f565b6109c4600061254a565b565b60006109d061119f565b3063623662ad868686866000604051908082528060200260200182016040528015610a3857816020015b610a256040805160808101909152806000815260606020820181905260408201819052600091015290565b8152602001906001900390816109fa5790505b506040518663ffffffff1660e01b8152600401610a5995949392919061373f565b6020604051808303816000875af1158015610a78573d6000803e3d6000fd5b505050506040513d601f19601f82011682018060405250810190610a9c919061386d565b90505b949350505050565b6000610ab161119f565b60006001600160a01b0316600183604051610acc91906134bc565b908152604051908190036020019020546001600160a01b031603610b05578160405163c0bab25f60e01b81526004016103fd91906134d8565b6000600183604051610b1791906134bc565b9081526020016040518091039020600301541115610b4a5781604051635be9608560e11b81526004016103fd91906134d8565b610bfc600183604051610b5d91906134bc565b90815260200160405180910390206001018054610b7990613482565b80601f0160208091040260200160405190810160405280929190818152602001828054610ba590613482565b8015610bf25780601f10610bc757610100808354040283529160200191610bf2565b820191906000526020600020905b815481529060010190602001808311610bd557829003601f168201915b505050505061259a565b600182604051610c0c91906134bc565b90815260405190819003602001902080546001600160a81b03191681556000610c386001830182612a71565b506002810180546001600160a01b031916905560006003909101556040517f3855d31914452a5e7361730662e60834555d7cb26d380140894d85fd0d13b85490610c839084906134d8565b60405180910390a15060015b919050565b6000610c9e61119f565b81600184604051610caf91906134bc565b9081526020016040518091039020600301541015610d0f5760405162461bcd60e51b815260206004820152601e60248201527f6275726e206173736574206173736574206973206e6f74206c6f636b6564000060448201526064016103fd565b610d1b836001846111cc565b610d605760405162461bcd60e51b8152602060048201526016602482015275189d5c9b88185cdcd95d0818d85b1b0819985a5b195960521b60448201526064016103fd565b81600184604051610d7191906134bc565b90815260200160405180910390206003016000828254610d919190613523565b90915550506040517fa0237080cf48d9e1fbb9ef1f82e33b11170d047b2b540a73b457d0916d53ee99906104ae90859085906134eb565b610dfa6040805160a0810190915260008082526020820190815260606020820181905260006040830181905291015290565b600182604051610e0a91906134bc565b908152604080516020928190038301812060a0820190925281546001600160a01b03811682529092830190600160a01b900460ff166003811115610e5057610e50612d8f565b6003811115610e6157610e61612d8f565b8152602001600182018054610e7590613482565b80601f0160208091040260200160405190810160405280929190818152602001828054610ea190613482565b8015610eee5780601f10610ec357610100808354040283529160200191610eee565b820191906000526020600020905b815481529060010190602001808311610ed157829003601f168201915b505050918352505060028201546001600160a01b0316602082015260039091015460409091015292915050565b6000610f2561119f565b60006001600160a01b0316600184604051610f4091906134bc565b908152604051908190036020019020546001600160a01b031603610f79578260405163c0bab25f60e01b81526004016103fd91906134d8565b81600184604051610f8a91906134bc565b9081526020016040518091039020600301541015610fbf57828260405163076abcf360e51b81526004016103fd9291906134eb565b6000610fcd846005856111cc565b9050801561104f5782600185604051610fe691906134bc565b908152602001604051809103902060030160008282546110069190613523565b90915550506040517f7b3c894115251262b174b7aeab24a57e00bc2e8853d1ef2f57a217edaa69c06e9061103d90869086906134eb565b60405180910390a160019150506104ba565b836040516358300fe760e01b81526004016103fd91906134d8565b600061107461119f565b60006001600160a01b031660018460405161108f91906134bc565b908152604051908190036020019020546001600160a01b0316036110c8578260405163c0bab25f60e01b81526004016103fd91906134d8565b60006110d6846004856111cc565b9050801561114657826001856040516110ef91906134bc565b9081526020016040518091039020600301600082825461110f919061388a565b90915550506040517fc480ef4e831b2ca5eb0b2f95c6564d9a56af5b3fe2383393008e3f1708dc97979061103d90869086906134eb565b8360405163412204b560e11b81526004016103fd91906134d8565b61116961119f565b6001600160a01b03811661119357604051631e4fbdf760e01b8152600060048201526024016103fd565b61119c8161254a565b50565b6000546001600160a01b031633146109c45760405163118cdaa760e01b81523360048201526024016103fd565b6000610a9f84848460005b60006002856040516111e991906134bc565b9081526020016040518091039020600085600581111561120b5761120b612d8f565b600581111561121c5761121c612d8f565b815260208101919091526040016000206003015460ff1661123f57506000610a9f565b60005b60028660405161125291906134bc565b9081526020016040518091039020600086600581111561127457611274612d8f565b600581111561128557611285612d8f565b81526020810191909152604001600020600101548110156114e45760006002876040516112b291906134bc565b908152602001604051809103902060008760058111156112d4576112d4612d8f565b60058111156112e5576112e5612d8f565b815260200190815260200160002060010182815481106113075761130761389d565b9060005260206000200160405160200161132191906138b3565b604051602081830303815290604052805190602001209050600061143d8261143860028b60405161135291906134bc565b908152602001604051809103902060008b600581111561137457611374612d8f565b600581111561138557611385612d8f565b815260200190815260200160002060020186815481106113a7576113a761389d565b9060005260206000200180548060200260200160405190810160405280929190818152602001828054801561142b57602002820191906000526020600020906000905b82829054906101000a900460ff16600681111561140957611409612d8f565b8152602060019283018181049485019490930390920291018084116113ea5790505b50505050508b898b6126f4565b6129c3565b9050600060018960405161145191906134bc565b908152604051908190036020018120546001600160a01b0316906114769084906134bc565b6000604051808303816000865af19150503d80600081146114b3576040519150601f19603f3d011682016040523d82523d6000602084013e6114b8565b606091505b50509050806114ce576000945050505050610a9f565b50505080806114dc90613929565b915050611242565b50600195945050505050565b60005b815181101561160b5781818151811061150e5761150e61389d565b602002602001015160028460405161152691906134bc565b908152602001604051809103902060008484815181106115485761154861389d565b602002602001015160000151600581111561156557611565612d8f565b600581111561157657611576612d8f565b8152602081019190915260400160002081518154829060ff191660018360058111156115a4576115a4612d8f565b021790555060208281015180516115c19260018501920190612aab565b50604082015180516115dd916002840191602090910190612b01565b50606091909101516003909101805460ff19169115159190911790558061160381613929565b9150506114f3565b505050565b600081600381111561162457611624612d8f565b0361247557604080516001808252818301909252600091816020015b6060815260200190600190039081611640575050604080516002808252606082018352929350919060208301908036833701905050816000815181106116885761168861389d565b60200260200101819052506005816000815181106116a8576116a861389d565b60200260200101516000815181106116c2576116c261389d565b602002602001019060068111156116db576116db612d8f565b908160068111156116ee576116ee612d8f565b815250506004816000815181106117075761170761389d565b60200260200101516001815181106117215761172161389d565b6020026020010190600681111561173a5761173a612d8f565b9081600681111561174d5761174d612d8f565b905250604080516001808252818301909252600091816020015b6060815260200190600190039081611767579050509050604051806040016040528060168152602001755f6d696e7428616464726573732c75696e743235362960501b815250816000815181106117c0576117c061389d565b6020908102919091010152604080516080810190915280600081526020018281526020018381526020016001151581525060028560405161180191906134bc565b908152604080516020928190038301902060008080529252902081518154829060ff1916600183600581111561183957611839612d8f565b021790555060208281015180516118569260018501920190612aab565b5060408201518051611872916002840191602090910190612b01565b50606091909101516003909101805460ff1916911515919091179055604080516001808252818301909252600091602082015b60608152602001906001900390816118a5575050604080516002808252606082018352929350919060208301908036833701905050816000815181106118ed576118ed61389d565b602002602001018190525060058160008151811061190d5761190d61389d565b60200260200101516000815181106119275761192761389d565b6020026020010190600681111561194057611940612d8f565b9081600681111561195357611953612d8f565b8152505060048160008151811061196c5761196c61389d565b60200260200101516001815181106119865761198661389d565b6020026020010190600681111561199f5761199f612d8f565b908160068111156119b2576119b2612d8f565b905250604080516001808252818301909252600091816020015b60608152602001906001900390816119cc579050509050604051806040016040528060168152602001755f6275726e28616464726573732c75696e743235362960501b81525081600081518110611a2557611a2561389d565b60209081029190910101526040805160808101909152806001815260200182815260200183815260200160011515815250600287604051611a6691906134bc565b908152604051908190036020019020600060018152602081019190915260400160002081518154829060ff19166001836005811115611aa757611aa7612d8f565b02179055506020828101518051611ac49260018501920190612aab565b5060408201518051611ae0916002840191602090910190612b01565b50606091909101516003909101805460ff1916911515919091179055604080516001808252818301909252600091602082015b6060815260200190600190039081611b1357505060408051600380825260808201909252919250602082016060803683370190505081600081518110611b5b57611b5b61389d565b6020026020010181905250600581600081518110611b7b57611b7b61389d565b6020026020010151600081518110611b9557611b9561389d565b60200260200101906006811115611bae57611bae612d8f565b90816006811115611bc157611bc1612d8f565b81525050600381600081518110611bda57611bda61389d565b6020026020010151600181518110611bf457611bf461389d565b60200260200101906006811115611c0d57611c0d612d8f565b90816006811115611c2057611c20612d8f565b81525050600481600081518110611c3957611c3961389d565b6020026020010151600281518110611c5357611c5361389d565b60200260200101906006811115611c6c57611c6c612d8f565b90816006811115611c7f57611c7f612d8f565b905250604080516001808252818301909252600091816020015b6060815260200190600190039081611c99579050509050604051806060016040528060228152602001613a876022913981600081518110611cdc57611cdc61389d565b60209081029190910101526040805160808101909152806002815260200182815260200183815260200160011515815250600289604051611d1d91906134bc565b9081526040805160209281900383019020600260009081529252902081518154829060ff19166001836005811115611d5757611d57612d8f565b02179055506020828101518051611d749260018501920190612aab565b5060408201518051611d90916002840191602090910190612b01565b50606091909101516003909101805460ff1916911515919091179055604080516001808252818301909252600091602082015b6060815260200190600190039081611dc357505060408051600380825260808201909252919250602082016060803683370190505081600081518110611e0b57611e0b61389d565b6020026020010181905250600381600081518110611e2b57611e2b61389d565b6020026020010151600081518110611e4557611e4561389d565b60200260200101906006811115611e5e57611e5e612d8f565b90816006811115611e7157611e71612d8f565b81525050600581600081518110611e8a57611e8a61389d565b6020026020010151600181518110611ea457611ea461389d565b60200260200101906006811115611ebd57611ebd612d8f565b90816006811115611ed057611ed0612d8f565b81525050600481600081518110611ee957611ee961389d565b6020026020010151600281518110611f0357611f0361389d565b60200260200101906006811115611f1c57611f1c612d8f565b90816006811115611f2f57611f2f612d8f565b905250604080516001808252818301909252600091816020015b6060815260200190600190039081611f49579050509050604051806060016040528060258152602001613a626025913981600081518110611f8c57611f8c61389d565b6020908102919091010152604080516080810190915280600481526020018281526020018381526020016001151581525060028b604051611fcd91906134bc565b9081526040805160209281900383019020600460009081529252902081518154829060ff1916600183600581111561200757612007612d8f565b021790555060208281015180516120249260018501920190612aab565b5060408201518051612040916002840191602090910190612b01565b50606091820151600391909101805460ff1916911515919091179055604080516002808252928101909152600091602082015b6060815260200190600190039081612073575050604080516002808252606082018352929350919060208301908036833701905050816000815181106120bb576120bb61389d565b60200260200101819052506005816000815181106120db576120db61389d565b60200260200101516000815181106120f5576120f561389d565b6020026020010190600681111561210e5761210e612d8f565b9081600681111561212157612121612d8f565b8152505060048160008151811061213a5761213a61389d565b60200260200101516001815181106121545761215461389d565b6020026020010190600681111561216d5761216d612d8f565b9081600681111561218057612180612d8f565b90525060408051600280825260608201909252600091816020015b606081526020019060019003908161219b5790505090506040518060400160405280601881526020017f617070726f766528616464726573732c75696e74323536290000000000000000815250816000815181106121fb576121fb61389d565b60209081029190910101526040805160038082526080820190925290816020016020820280368337019050508260018151811061223a5761223a61389d565b602002602001018190525060058260018151811061225a5761225a61389d565b60200260200101516000815181106122745761227461389d565b6020026020010190600681111561228d5761228d612d8f565b908160068111156122a0576122a0612d8f565b815250506003826001815181106122b9576122b961389d565b60200260200101516001815181106122d3576122d361389d565b602002602001019060068111156122ec576122ec612d8f565b908160068111156122ff576122ff612d8f565b815250506004826001815181106123185761231861389d565b60200260200101516002815181106123325761233261389d565b6020026020010190600681111561234b5761234b612d8f565b9081600681111561235e5761235e612d8f565b81525050604051806060016040528060258152602001613a62602591398160018151811061238e5761238e61389d565b6020908102919091010152604080516080810190915280600581526020018281526020018381526020016001151581525060028d6040516123cf91906134bc565b908152604051908190036020019020600060058152602081019190915260400160002081518154829060ff1916600183600581111561241057612410612d8f565b0217905550602082810151805161242d9260018501920190612aab565b5060408201518051612449916002840191602090910190612b01565b50606091909101516003909101805460ff19169115159190911790555061253098505050505050505050565b600181600381111561248957612489612d8f565b036124cf5760405162461bcd60e51b8152602060048201526016602482015275115490cdcc8c481b9bdd081a5b5c1b195b595b9d195960521b60448201526064016103fd565b60028160038111156124e3576124e3612d8f565b036125305760405162461bcd60e51b815260206004820152601760248201527f45524331313535206e6f7420696d706c656d656e74656400000000000000000060448201526064016103fd565b5050565b600061254383836000806111d7565b9392505050565b600080546001600160a01b038381166001600160a01b0319831681178455604051919092169283917f8be0079c531659141344cd1fd0a4f28419497f9722a3daafe3b4186f6b6457e09190a35050565b60005b60035481101561253057612656600382815481106125bd576125bd61389d565b9060005260206000200180546125d290613482565b80601f01602080910402602001604051908101604052809291908181526020018280546125fe90613482565b801561264b5780601f106126205761010080835404028352916020019161264b565b820191906000526020600020905b81548152906001019060200180831161262e57829003601f168201915b505050505083612a4c565b156126e2576003805461266b90600190613523565b8154811061267b5761267b61389d565b90600052602060002001600382815481106126985761269861389d565b9060005260206000200190816126ae9190613942565b5060038054806126c0576126c0613a1c565b6001900381819060005260206000200160006126dc9190612a71565b90555050565b806126ec81613929565b91505061259d565b6060600085516001600160401b0381111561271157612711612c7e565b60405190808252806020026020018201604052801561274457816020015b606081526020019060019003908161272f5790505b50905060005b86518110156129b95760058782815181106127675761276761389d565b6020026020010151600681111561278057612780612d8f565b036127c25760408051306020820152015b6040516020818303038152906040528282815181106127b2576127b261389d565b60200260200101819052506129a7565b60028782815181106127d6576127d661389d565b602002602001015160068111156127ef576127ef612d8f565b03612805578560405160200161279191906134d8565b60048782815181106128195761281961389d565b6020026020010151600681111561283257612832612d8f565b0361284857604080516020810186905201612791565b600387828151811061285c5761285c61389d565b6020026020010151600681111561287557612875612d8f565b036128b35760018660405161288a91906134bc565b908152604080519182900360209081018320600201546001600160a01b03169083015201612791565b60008782815181106128c7576128c761389d565b602002602001015160068111156128e0576128e0612d8f565b0361291b576001866040516128f591906134bc565b908152604080519182900360209081018320546001600160a01b03169083015201612791565b600687828151811061292f5761292f61389d565b6020026020010151600681111561294857612948612d8f565b0361296657604080516001600160a01b038716602082015201612791565b60405162461bcd60e51b815260206004820152601660248201527515985c9a58589b19481b9bdd081cdd5c1c1bdc9d195960521b60448201526064016103fd565b806129b181613929565b91505061274a565b5095945050505050565b604080516001600160e01b03198416602082015281516004818303018152602490910190915260005b8251811015612a455781838281518110612a0857612a0861389d565b6020026020010151604051602001612a21929190613a32565b60405160208183030381529060405291508080612a3d90613929565b9150506129ec565b5092915050565b6000815183511480156125435750508051602091820120825192909101919091201490565b508054612a7d90613482565b6000825580601f10612a8d575050565b601f01602090049060005260206000209081019061119c9190612b5a565b828054828255906000526020600020908101928215612af1579160200282015b82811115612af15782518290612ae190826135b2565b5091602001919060010190612acb565b50612afd929150612b6f565b5090565b828054828255906000526020600020908101928215612b4e579160200282015b82811115612b4e5782518051612b3e918491602090910190612b8c565b5091602001919060010190612b21565b50612afd929150612c3c565b5b80821115612afd5760008155600101612b5b565b80821115612afd576000612b838282612a71565b50600101612b6f565b82805482825590600052602060002090601f01602090048101928215612c305791602002820160005b83821115612c0157835183826101000a81548160ff02191690836006811115612be057612be0612d8f565b02179055509260200192600101602081600001049283019260010302612bb5565b8015612c2e5782816101000a81549060ff0219169055600101602081600001049283019260010302612c01565b505b50612afd929150612b5a565b80821115612afd576000612c508282612c59565b50600101612c3c565b50805460008255601f01602090049060005260206000209081019061119c9190612b5a565b634e487b7160e01b600052604160045260246000fd5b604051608081016001600160401b0381118282101715612cb657612cb6612c7e565b60405290565b604051601f8201601f191681016001600160401b0381118282101715612ce457612ce4612c7e565b604052919050565b600082601f830112612cfd57600080fd5b81356001600160401b03811115612d1657612d16612c7e565b612d29601f8201601f1916602001612cbc565b818152846020838601011115612d3e57600080fd5b816020850160208301376000918101602001919091529392505050565b600060208284031215612d6d57600080fd5b81356001600160401b03811115612d8357600080fd5b610a9f84828501612cec565b634e487b7160e01b600052602160045260246000fd5b60048110612db557612db5612d8f565b9052565b60005b83811015612dd4578181015183820152602001612dbc565b50506000910152565b60008151808452612df5816020860160208601612db9565b601f01601f19169290920160200192915050565b6001600160a01b038681168252600090612e266020840188612da5565b60a06040840152612e3a60a0840187612ddd565b9416606083015250608001529392505050565b60008060408385031215612e6057600080fd5b82356001600160401b03811115612e7657600080fd5b612e8285828601612cec565b95602094909401359450505050565b80356001600160a01b0381168114610c8f57600080fd5b600080600060608486031215612ebd57600080fd5b83356001600160401b03811115612ed357600080fd5b612edf86828701612cec565b935050612eee60208501612e91565b9150604084013590509250925092565b6000602080830181845280855180835260408601915060408160051b870101925083870160005b82811015612f5357603f19888603018452612f41858351612ddd565b94509285019290850190600101612f25565b5092979650505050505050565b803560048110610c8f57600080fd5b60006001600160401b03821115612f8857612f88612c7e565b5060051b60200190565b803560068110610c8f57600080fd5b600082601f830112612fb257600080fd5b81356020612fc7612fc283612f6f565b612cbc565b828152600592831b8501820192828201919087851115612fe657600080fd5b8387015b8581101561308a5780356001600160401b038111156130095760008081fd5b8801603f81018a1361301b5760008081fd5b85810135604061302d612fc283612f6f565b82815291851b8301810191888101908d84111561304a5760008081fd5b938201935b838510156130795784359250600783106130695760008081fd5b828252938901939089019061304f565b885250505093850193508401612fea565b5090979650505050505050565b801515811461119c57600080fd5b8035610c8f81613097565b600080600080600060a086880312156130c857600080fd5b6130d186612e91565b94506130df60208701612f60565b93506001600160401b03604087013511156130f957600080fd5b6131098760408801358801612cec565b925061311760608701612e91565b91506001600160401b036080870135111561313157600080fd5b86601f60808801358801011261314657600080fd5b613159612fc26080880135880135612f6f565b6080870135870180358083526020808401939260059290921b9091010189101561318257600080fd5b602060808901358901015b60808901358901803560051b0160200181101561330a576001600160401b03813511156131b957600080fd5b803560808a01358a01016080601f19828d030112156131d757600080fd5b6131df612c94565b6131eb60208301612f92565b81526001600160401b036040830135111561320557600080fd5b8b603f60408401358401011261321a57600080fd5b613230612fc26020604085013585010135612f6f565b6020604084810135850182810135808552928401939260051b01018e101561325757600080fd5b6040808501358501015b6040858101358601602081013560051b01018110156132b3576001600160401b038135111561328f57600080fd5b6132a58f60408335604089013589010101612cec565b835260209283019201613261565b506020830152506001600160401b03606083013511156132d257600080fd5b6132e58c60206060850135850101612fa1565b60408201526132f6608083016130a5565b60608201528452506020928301920161318d565b5080925050509295509295909350565b6000806000806080858703121561333057600080fd5b61333985612e91565b935061334760208601612f60565b925060408501356001600160401b0381111561336257600080fd5b61336e87828801612cec565b92505061337d60608601612e91565b905092959194509250565b60208152600060018060a01b0380845116602084015260208401516133b06040850182612da5565b50604084015160a060608501526133ca60c0850182612ddd565b9050816060860151166080850152608085015160a0850152809250505092915050565b6000806040838503121561340057600080fd5b82356001600160401b0381111561341657600080fd5b61342285828601612cec565b92505061343160208401612f92565b90509250929050565b60068110612db557612db5612d8f565b60408101613458828561343a565b82151560208301529392505050565b60006020828403121561347957600080fd5b61254382612e91565b600181811c9082168061349657607f821691505b6020821081036134b657634e487b7160e01b600052602260045260246000fd5b50919050565b600082516134ce818460208701612db9565b9190910192915050565b6020815260006125436020830184612ddd565b6040815260006134fe6040830185612ddd565b90508260208301529392505050565b634e487b7160e01b600052601160045260246000fd5b818103818111156104ba576104ba61350d565b6060815260006135496060830186612ddd565b6001600160a01b039490941660208301525060400152919050565b601f82111561160b57600081815260208120601f850160051c8101602086101561358b5750805b601f850160051c820191505b818110156135aa57828155600101613597565b505050505050565b81516001600160401b038111156135cb576135cb612c7e565b6135df816135d98454613482565b84613564565b602080601f83116001811461361457600084156135fc5750858301515b600019600386901b1c1916600185901b1785556135aa565b600085815260208120601f198616915b8281101561364357888601518255948401946001909101908401613624565b50858210156136615787850151600019600388901b60f8161c191681555b5050505050600190811b01905550565b6001600160a01b03858116825260009061368e6020840187612da5565b608060408401526136a26080840186612ddd565b915080841660608401525095945050505050565b6000815180845260208085019450848260051b86018286016000805b86811015613731578484038a52825180518086529087019087860190845b8181101561371c5783516007811061370a5761370a612d8f565b835292890192918901916001016136f0565b50509a87019a945050918501916001016136d2565b509198975050505050505050565b6001600160a01b03868116825260009060a09060206137608186018a612da5565b604083818701526137738487018a612ddd565b6060848a168189015260809450878203858901528189518084528584019150858160051b850101868c0160005b8381101561385557601f1987840301855281518a84016137c185835161343a565b818b0151858c018d9052805191829052600582901b86018e0191908c01908e87019060005b8181101561381457609f19898603018352613802858551612ddd565b9450928e0192918e01916001016137e6565b50505050898201518582038b87015261382d82826136b6565b92890151801515878b01529291506138429050565b958a0195935050908801906001016137a0565b50508099505050505050505050509695505050505050565b60006020828403121561387f57600080fd5b815161254381613097565b808201808211156104ba576104ba61350d565b634e487b7160e01b600052603260045260246000fd5b60008083546138c181613482565b600182811680156138d957600181146138ee5761391d565b60ff198416875282151583028701945061391d565b8760005260208060002060005b858110156139145781548a8201529084019082016138fb565b50505082870194505b50929695505050505050565b60006001820161393b5761393b61350d565b5060010190565b81810361394d575050565b6139578254613482565b6001600160401b0381111561396e5761396e612c7e565b61397c816135d98454613482565b6000601f8211600181146139b057600083156139985750848201545b600019600385901b1c1916600184901b178455613a15565b600085815260209020601f19841690600086815260209020845b838110156139ea57828601548255600195860195909101906020016139ca565b5085831015613a085781850154600019600388901b60f8161c191681555b50505060018360011b0184555b5050505050565b634e487b7160e01b600052603160045260246000fd5b60008351613a44818460208801612db9565b835190830190613a58818360208801612db9565b0194935050505056fe7472616e7366657246726f6d28616464726573732c616464726573732c75696e74323536295f7472616e7366657228616464726573732c616464726573732c75696e7432353629a26469706673582212208146f11bda1354d3d8ef8b247a5630ee0802e0a9854d348e729d922e67a93d5964736f6c63430008140033",
    "sourcePath": "/home/kubaya/Desktop/cacti_fork/packages/cactus-plugin-satp-hermes/src/solidity/satp-wrapper.sol",
    "compiler": {
        "name": "solc",
        "version": "0.8.20+commit.a1b79de6"
    },
    "functionHashes": {
        "assign(string,address,uint256)": "4534ba17",
        "bridge_address()": "1255c189",
        "burn(string,uint256)": "b48272cc",
        "getAllAssetsIDs()": "5137b8a7",
        "getToken(string)": "c1733f68",
        "lock(string,uint256)": "e1efb596",
        "mint(string,uint256)": "056b01ce",
        "owner()": "8da5cb5b",
        "renounceOwnership()": "715018a6",
        "tokens(string)": "04c2320b",
        "tokensInteractions(string,uint8)": "ea8f547f",
        "transferOwnership(address)": "f2fde38b",
        "unlock(string,uint256)": "d9cf884c",
        "unwrap(string)": "a1bc17c5",
        "wrap(address,uint8,string,address)": "72d4c33b",
        "wrap(address,uint8,string,address,(uint8,string[],uint8[][],bool)[])": "623662ad"
    },
    "gasEstimates": {
        "creation": {
            "codeDepositCost": "3014000",
            "executionCost": "infinite",
            "totalCost": "infinite"
        },
        "external": {
            "assign(string,address,uint256)": "infinite",
            "bridge_address()": "2405",
            "burn(string,uint256)": "infinite",
            "getAllAssetsIDs()": "infinite",
            "getToken(string)": "infinite",
            "lock(string,uint256)": "infinite",
            "mint(string,uint256)": "infinite",
            "owner()": "2354",
            "renounceOwnership()": "infinite",
            "tokens(string)": "infinite",
            "tokensInteractions(string,uint8)": "infinite",
            "transferOwnership(address)": "28421",
            "unlock(string,uint256)": "infinite",
            "unwrap(string)": "infinite",
            "wrap(address,uint8,string,address)": "infinite",
            "wrap(address,uint8,string,address,(uint8,string[],uint8[][],bool)[])": "infinite"
        },
        "internal": {
            "createNonStandardTokenOntology(string memory,struct InteractionSignature memory[] memory)": "infinite",
            "createStandardTokenOntology(string memory,enum TokenType)": "infinite",
            "deleteFromArray(string memory)": "infinite",
            "encodeDynamicParams(bytes4,bytes memory[] memory)": "infinite",
            "encodeParams(enum Types[] memory,string memory,address,uint256)": "infinite",
            "interact(string memory,enum InteractionType)": "infinite",
            "interact(string memory,enum InteractionType,uint256)": "infinite",
            "interact(string memory,enum InteractionType,uint256,address)": "infinite"
        }
    }
}